{
  "contractName": "FinanceSheet",
  "abi": [
    {
      "inputs": [
        {
          "internalType": "uint256",
          "name": "_amount",
          "type": "uint256"
        },
        {
          "internalType": "uint256",
          "name": "_date",
          "type": "uint256"
        },
        {
          "internalType": "string",
          "name": "_description",
          "type": "string"
        },
        {
          "internalType": "bool",
          "name": "_isExpense",
          "type": "bool"
        }
      ],
      "name": "addTransaction",
      "outputs": [],
      "stateMutability": "nonpayable",
      "type": "function"
    },
    {
      "inputs": [],
      "name": "getTransactionCount",
      "outputs": [
        {
          "internalType": "uint256",
          "name": "",
          "type": "uint256"
        }
      ],
      "stateMutability": "view",
      "type": "function",
      "constant": true
    },
    {
      "inputs": [
        {
          "internalType": "uint256",
          "name": "_index",
          "type": "uint256"
        }
      ],
      "name": "getTransaction",
      "outputs": [
        {
          "internalType": "uint256",
          "name": "",
          "type": "uint256"
        },
        {
          "internalType": "uint256",
          "name": "",
          "type": "uint256"
        },
        {
          "internalType": "string",
          "name": "",
          "type": "string"
        },
        {
          "internalType": "bool",
          "name": "",
          "type": "bool"
        }
      ],
      "stateMutability": "view",
      "type": "function",
      "constant": true
    },
    {
      "inputs": [
        {
          "internalType": "uint256",
          "name": "_amount",
          "type": "uint256"
        },
        {
          "internalType": "uint256",
          "name": "_dueDate",
          "type": "uint256"
        },
        {
          "internalType": "string",
          "name": "_description",
          "type": "string"
        }
      ],
      "name": "addChecklistItem",
      "outputs": [],
      "stateMutability": "nonpayable",
      "type": "function"
    },
    {
      "inputs": [],
      "name": "getChecklistItemCount",
      "outputs": [
        {
          "internalType": "uint256",
          "name": "",
          "type": "uint256"
        }
      ],
      "stateMutability": "view",
      "type": "function",
      "constant": true
    },
    {
      "inputs": [
        {
          "internalType": "uint256",
          "name": "_index",
          "type": "uint256"
        },
        {
          "internalType": "bool",
          "name": "_unpaidOnly",
          "type": "bool"
        }
      ],
      "name": "getChecklistItem",
      "outputs": [
        {
          "internalType": "uint256",
          "name": "",
          "type": "uint256"
        },
        {
          "internalType": "uint256",
          "name": "",
          "type": "uint256"
        },
        {
          "internalType": "string",
          "name": "",
          "type": "string"
        },
        {
          "internalType": "bool",
          "name": "",
          "type": "bool"
        }
      ],
      "stateMutability": "view",
      "type": "function",
      "constant": true
    },
    {
      "inputs": [
        {
          "internalType": "uint256",
          "name": "_index",
          "type": "uint256"
        }
      ],
      "name": "markChecklistItemPaid",
      "outputs": [],
      "stateMutability": "nonpayable",
      "type": "function"
    }
  ],
  "bytecode": "0x608060405234801561001057600080fd5b506110b9806100206000396000f3fe608060405234801561001057600080fd5b506004361061007d5760003560e01c8063494265371161005b57806349426537146101065780634db8dfe3146101225780636b304b4014610140578063f230ee181461015c5761007d565b80632e7700f01461008257806330cd0e78146100a057806333ea3dc8146100d3575b600080fd5b61008a610178565b6040516100979190610a1e565b60405180910390f35b6100ba60048036038101906100b59190610ab1565b6101bf565b6040516100ca9493929190610b99565b60405180910390f35b6100ed60048036038101906100e89190610be5565b6103ad565b6040516100fd9493929190610b99565b60405180910390f35b610120600480360381019061011b9190610be5565b610553565b005b61012a6106aa565b6040516101379190610a1e565b60405180910390f35b61015a60048036038101906101559190610d47565b6106f1565b005b61017660048036038101906101719190610db6565b61082a565b005b6000600260003373ffffffffffffffffffffffffffffffffffffffff1673ffffffffffffffffffffffffffffffffffffffff16815260200190815260200160002054905090565b60008060606000600360003373ffffffffffffffffffffffffffffffffffffffff1673ffffffffffffffffffffffffffffffffffffffff168152602001908152602001600020548610610247576040517f08c379a000000000000000000000000000000000000000000000000000000000815260040161023e90610e85565b60405180910390fd5b6000600160003373ffffffffffffffffffffffffffffffffffffffff1673ffffffffffffffffffffffffffffffffffffffff168152602001908152602001600020878154811061029a57610299610ea5565b5b906000526020600020906004020190508580156102c557508060030160009054906101000a900460ff165b156102ee57600080600160405180602001604052806000815250909450945094509450506103a4565b80600001548160010154826002018360030160009054906101000a900460ff1681805461031a90610f03565b80601f016020809104026020016040519081016040528092919081815260200182805461034690610f03565b80156103935780601f1061036857610100808354040283529160200191610393565b820191906000526020600020905b81548152906001019060200180831161037657829003601f168201915b505050505091509450945094509450505b92959194509250565b60008060606000600260003373ffffffffffffffffffffffffffffffffffffffff1673ffffffffffffffffffffffffffffffffffffffff168152602001908152602001600020548510610435576040517f08c379a000000000000000000000000000000000000000000000000000000000815260040161042c90610f80565b60405180910390fd5b60008060003373ffffffffffffffffffffffffffffffffffffffff1673ffffffffffffffffffffffffffffffffffffffff168152602001908152602001600020868154811061048757610486610ea5565b5b9060005260206000209060040201905080600001548160010154826002018360030160009054906101000a900460ff168180546104c390610f03565b80601f01602080910402602001604051908101604052809291908181526020018280546104ef90610f03565b801561053c5780601f106105115761010080835404028352916020019161053c565b820191906000526020600020905b81548152906001019060200180831161051f57829003601f168201915b505050505091509450945094509450509193509193565b600360003373ffffffffffffffffffffffffffffffffffffffff1673ffffffffffffffffffffffffffffffffffffffff1681526020019081526020016000205481106105d4576040517f08c379a00000000000000000000000000000000000000000000000000000000081526004016105cb90610e85565b60405180910390fd5b6000600160003373ffffffffffffffffffffffffffffffffffffffff1673ffffffffffffffffffffffffffffffffffffffff168152602001908152602001600020828154811061062757610626610ea5565b5b906000526020600020906004020190508060030160009054906101000a900460ff1615610689576040517f08c379a000000000000000000000000000000000000000000000000000000000815260040161068090610fec565b60405180910390fd5b60018160030160006101000a81548160ff0219169083151502179055505050565b6000600360003373ffffffffffffffffffffffffffffffffffffffff1673ffffffffffffffffffffffffffffffffffffffff16815260200190815260200160002054905090565b600160003373ffffffffffffffffffffffffffffffffffffffff1673ffffffffffffffffffffffffffffffffffffffff1681526020019081526020016000206040518060800160405280858152602001848152602001838152602001600015158152509080600181540180825580915050600190039060005260206000209060040201600090919091909150600082015181600001556020820151816001015560408201518160020190805190602001906107ad929190610962565b5060608201518160030160006101000a81548160ff0219169083151502179055505050600360003373ffffffffffffffffffffffffffffffffffffffff1673ffffffffffffffffffffffffffffffffffffffff16815260200190815260200160002060008154809291906108209061103b565b9190505550505050565b6000803373ffffffffffffffffffffffffffffffffffffffff1673ffffffffffffffffffffffffffffffffffffffff16815260200190815260200160002060405180608001604052808681526020018581526020018481526020018315158152509080600181540180825580915050600190039060005260206000209060040201600090919091909150600082015181600001556020820151816001015560408201518160020190805190602001906108e4929190610962565b5060608201518160030160006101000a81548160ff0219169083151502179055505050600260003373ffffffffffffffffffffffffffffffffffffffff1673ffffffffffffffffffffffffffffffffffffffff16815260200190815260200160002060008154809291906109579061103b565b919050555050505050565b82805461096e90610f03565b90600052602060002090601f01602090048101928261099057600085556109d7565b82601f106109a957805160ff19168380011785556109d7565b828001600101855582156109d7579182015b828111156109d65782518255916020019190600101906109bb565b5b5090506109e491906109e8565b5090565b5b80821115610a015760008160009055506001016109e9565b5090565b6000819050919050565b610a1881610a05565b82525050565b6000602082019050610a336000830184610a0f565b92915050565b6000604051905090565b600080fd5b600080fd5b610a5681610a05565b8114610a6157600080fd5b50565b600081359050610a7381610a4d565b92915050565b60008115159050919050565b610a8e81610a79565b8114610a9957600080fd5b50565b600081359050610aab81610a85565b92915050565b60008060408385031215610ac857610ac7610a43565b5b6000610ad685828601610a64565b9250506020610ae785828601610a9c565b9150509250929050565b600081519050919050565b600082825260208201905092915050565b60005b83811015610b2b578082015181840152602081019050610b10565b83811115610b3a576000848401525b50505050565b6000601f19601f8301169050919050565b6000610b5c82610af1565b610b668185610afc565b9350610b76818560208601610b0d565b610b7f81610b40565b840191505092915050565b610b9381610a79565b82525050565b6000608082019050610bae6000830187610a0f565b610bbb6020830186610a0f565b8181036040830152610bcd8185610b51565b9050610bdc6060830184610b8a565b95945050505050565b600060208284031215610bfb57610bfa610a43565b5b6000610c0984828501610a64565b91505092915050565b600080fd5b600080fd5b7f4e487b7100000000000000000000000000000000000000000000000000000000600052604160045260246000fd5b610c5482610b40565b810181811067ffffffffffffffff82111715610c7357610c72610c1c565b5b80604052505050565b6000610c86610a39565b9050610c928282610c4b565b919050565b600067ffffffffffffffff821115610cb257610cb1610c1c565b5b610cbb82610b40565b9050602081019050919050565b82818337600083830152505050565b6000610cea610ce584610c97565b610c7c565b905082815260208101848484011115610d0657610d05610c17565b5b610d11848285610cc8565b509392505050565b600082601f830112610d2e57610d2d610c12565b5b8135610d3e848260208601610cd7565b91505092915050565b600080600060608486031215610d6057610d5f610a43565b5b6000610d6e86828701610a64565b9350506020610d7f86828701610a64565b925050604084013567ffffffffffffffff811115610da057610d9f610a48565b5b610dac86828701610d19565b9150509250925092565b60008060008060808587031215610dd057610dcf610a43565b5b6000610dde87828801610a64565b9450506020610def87828801610a64565b935050604085013567ffffffffffffffff811115610e1057610e0f610a48565b5b610e1c87828801610d19565b9250506060610e2d87828801610a9c565b91505092959194509250565b7f496e76616c696420636865636b6c697374206974656d20696e64657800000000600082015250565b6000610e6f601c83610afc565b9150610e7a82610e39565b602082019050919050565b60006020820190508181036000830152610e9e81610e62565b9050919050565b7f4e487b7100000000000000000000000000000000000000000000000000000000600052603260045260246000fd5b7f4e487b7100000000000000000000000000000000000000000000000000000000600052602260045260246000fd5b60006002820490506001821680610f1b57607f821691505b602082108103610f2e57610f2d610ed4565b5b50919050565b7f496e76616c6964207472616e73616374696f6e20696e64657800000000000000600082015250565b6000610f6a601983610afc565b9150610f7582610f34565b602082019050919050565b60006020820190508181036000830152610f9981610f5d565b9050919050565b7f436865636b6c697374206974656d20616c726561647920706169640000000000600082015250565b6000610fd6601b83610afc565b9150610fe182610fa0565b602082019050919050565b6000602082019050818103600083015261100581610fc9565b9050919050565b7f4e487b7100000000000000000000000000000000000000000000000000000000600052601160045260246000fd5b600061104682610a05565b91507fffffffffffffffffffffffffffffffffffffffffffffffffffffffffffffffff82036110785761107761100c565b5b60018201905091905056fea2646970667358221220b02f6db6b7a6db9f27535c9d70854ca8e67baee23c0c734225d1203722669b6064736f6c634300080d0033",
  "immutableReferences": {},
  "source": "// SPDX-License-Identifier: GPL-3.0\n\npragma solidity ^0.8.1;\n\ncontract FinanceSheet {\n    struct Transaction {\n        uint amount;\n        uint date;\n        string description;\n        bool isExpense;\n    }\n\n    struct ChecklistItem {\n        uint amount;\n        uint dueDate;\n        string description;\n        bool paid;\n    }\n\n    mapping(address => Transaction[]) private transactions;\n    mapping(address => ChecklistItem[]) private checklistItems;\n    mapping(address => uint) private transactionCount;\n    mapping(address => uint) private checklistItemCount;\n\n    function addTransaction(\n        uint _amount,\n        uint _date,\n        string memory _description,\n        bool _isExpense\n    ) public {\n        transactions[msg.sender].push(\n            Transaction(_amount, _date, _description, _isExpense)\n        );\n        transactionCount[msg.sender]++;\n    }\n\n    function getTransactionCount() public view returns (uint) {\n        return transactionCount[msg.sender];\n    }\n\n    function getTransaction(\n        uint _index\n    ) public view returns (uint, uint, string memory, bool) {\n        require(\n            _index < transactionCount[msg.sender],\n            \"Invalid transaction index\"\n        );\n        Transaction storage transaction = transactions[msg.sender][_index];\n        return (\n            transaction.amount,\n            transaction.date,\n            transaction.description,\n            transaction.isExpense\n        );\n    }\n\n    function addChecklistItem(\n        uint _amount,\n        uint _dueDate,\n        string memory _description\n    ) public {\n        checklistItems[msg.sender].push(\n            ChecklistItem(_amount, _dueDate, _description, false)\n        );\n        checklistItemCount[msg.sender]++;\n    }\n\n    function getChecklistItemCount() public view returns (uint) {\n        return checklistItemCount[msg.sender];\n    }\n\n    function getChecklistItem(\n        uint _index,\n        bool _unpaidOnly\n    ) public view returns (uint, uint, string memory, bool) {\n        require(\n            _index < checklistItemCount[msg.sender],\n            \"Invalid checklist item index\"\n        );\n        ChecklistItem storage item = checklistItems[msg.sender][_index];\n        if (_unpaidOnly && item.paid) {\n            return (0, 0, \"\", true);\n        } else {\n            return (item.amount, item.dueDate, item.description, item.paid);\n        }\n    }\n\n    function markChecklistItemPaid(uint _index) public {\n        require(\n            _index < checklistItemCount[msg.sender],\n            \"Invalid checklist item index\"\n        );\n        ChecklistItem storage item = checklistItems[msg.sender][_index];\n        require(!item.paid, \"Checklist item already paid\");\n        item.paid = true;\n    }\n}\n",
  "sourcePath": "/Users/tiagopereira/Documents/MyRepo/dotnet-blockchain/contracts/FinanceSheet.sol",
  "compiler": {
    "name": "solc",
    "version": "0.8.13+commit.abaa5c0e.Emscripten.clang"
  },
  "schemaVersion": "3.4.13",
  "updatedAt": "2023-03-10T09:07:23.330Z",
  "networkType": "ethereum",
  "devdoc": {
    "kind": "dev",
    "methods": {},
    "version": 1
  },
  "userdoc": {
    "kind": "user",
    "methods": {},
    "version": 1
  }
}